:020000040000fa
:080000000002040000000000f2
:020000040000fa
:04000800fe020000f4
:020000040000fa
:04000c0044030000a9
:020000040000fa
:040010008803000061
:020000040000fa
:0400140020030000c5
:020000040000fa
:04001800660300007b
:020000040000fa
:04001c0030040000ac
:020000040000fa
:04002000aa0300002f
:020000040000fa
:0400240030040000a4
:020000040000fa
:0400280030040000a0
:020000040000fa
:04002c00f8030000d5
:020000040000fa
:040030003004000098
:020000040000fa
:040034003004000094
:020000040000fa
:040038003004000090
:020000040000fa
:04003c00300400008c
:020000040000fa
:040040003004000088
:020000040000fa
:040044003004000084
:020000040000fa
:040048003004000080
:020000040000fa
:04004c00300400007c
:020000040000fa
:040050003004000078
:020000040000fa
:040054003004000074
:020000040000fa
:040058003004000070
:020000040000fa
:04005c00300400006c
:020000040000fa
:040060003004000068
:020000040000fa
:040064003004000064
:020000040000fa
:040068003004000060
:020000040000fa
:04006c00300400005c
:020000040000fa
:040070003004000058
:020000040000fa
:040074003004000054
:020000040000fa
:040078003004000050
:020000040000fa
:04007c00300400004c
:020000040000fa
:040080003004000048
:020000040000fa
:040084003004000044
:020000040000fa
:040088003004000040
:020000040000fa
:04008c00300400003c
:020000040000fa
:040090003004000038
:020000040000fa
:040094003004000034
:020000040000fa
:040098003004000030
:020000040000fa
:04009c00300400002c
:020000040000fa
:0400a0003004000028
:020000040000fa
:0400a4003004000024
:020000040000fa
:0400a8003004000020
:020000040000fa
:0400ac00300400001c
:020000040000fa
:0400b0003004000018
:020000040000fa
:0400b4003004000014
:020000040000fa
:0400b8003004000010
:020000040000fa
:0400bc00300400000c
:020000040000fa
:0400c0003004000008
:020000040000fa
:0400c4003004000004
:020000040000fa
:0400c8003004000000
:020000040000fa
:0400cc0030040000fc
:020000040000fa
:0400d00030040000f8
:020000040000fa
:0400d40030040000f4
:020000040000fa
:0400d80030040000f0
:020000040000fa
:0400dc0030040000ec
:020000040000fa
:0400e00030040000e8
:020000040000fa
:0400e40030040000e4
:020000040000fa
:0400e80030040000e0
:020000040000fa
:0400ec0030040000dc
:020000040000fa
:0400f00030040000d8
:020000040000fa
:0400f40030040000d4
:020000040000fa
:0400f80030040000d0
:020000040000fa
:0400fc0030040000cc
:020000040000fa
:0401000030040000c7
:020000040000fa
:0401040030040000c3
:020000040000fa
:0401080030040000bf
:020000040000fa
:04010c0030040000bb
:020000040000fa
:0401100030040000b7
:020000040000fa
:0401140030040000b3
:020000040000fa
:0401180030040000af
:020000040000fa
:04011c0030040000ab
:020000040000fa
:0401200030040000a7
:020000040000fa
:0401240030040000a3
:020000040000fa
:04012800300400009f
:020000040000fa
:04012c00300400009b
:020000040000fa
:040130003004000097
:020000040000fa
:040134003004000093
:020000040000fa
:04013800300400008f
:020000040000fa
:04013c00300400008b
:020000040000fa
:040140003004000087
:020000040000fa
:040144003004000083
:020000040000fa
:04014800300400007f
:020000040000fa
:04014c00300400007b
:020000040000fa
:040150003004000077
:020000040000fa
:040154003004000073
:020000040000fa
:04015800300400006f
:020000040000fa
:04015c00300400006b
:020000040000fa
:040160003004000067
:020000040000fa
:040164003004000063
:020000040000fa
:04016800300400005f
:020000040000fa
:04016c00300400005b
:020000040000fa
:040170003004000057
:020000040000fa
:040174003004000053
:020000040000fa
:04017800300400004f
:020000040000fa
:04017c00300400004b
:020000040000fa
:040180003004000047
:020000040000fa
:040184003004000043
:020000040000fa
:04018800300400003f
:020000040000fa
:04018c00300400003b
:020000040000fa
:040190003004000037
:020000040000fa
:040194003004000033
:020000040000fa
:04019800300400002f
:020000040000fa
:04019c00300400002b
:020000040000fa
:0401a0003004000027
:020000040000fa
:0401a4003004000023
:020000040000fa
:0401a800300400001f
:020000040000fa
:0401ac00300400001b
:020000040000fa
:0401b0003004000017
:020000040000fa
:0401b4003004000013
:020000040000fa
:0401b800300400000f
:020000040000fa
:0401bc00300400000b
:020000040000fa
:0401c0003004000007
:020000040000fa
:0401c4003004000003
:020000040000fa
:0401c80030040000ff
:020000040000fa
:0401cc0030040000fb
:020000040000fa
:0401d00030040000f7
:020000040000fa
:0401d40030040000f3
:020000040000fa
:0401d80030040000ef
:020000040000fa
:0401dc0030040000eb
:020000040000fa
:0401e00030040000e7
:020000040000fa
:0401e40030040000e3
:020000040000fa
:0401e80030040000df
:020000040000fa
:0401ec0030040000db
:020000040000fa
:0401f00030040000d7
:020000040000fa
:0401f40030040000d3
:020000040000fa
:0401f80030040000cf
:020000040000fa
:0401fc0030040000cb
:020000040000fa
:0402000030040000c6
:020000040000fa
:0402040030040000c2
:020000040000fa
:0402080030040000be
:020000040000fa
:04020c0030040000ba
:020000040000fa
:0402100030040000b6
:020000040000fa
:0402140030040000b2
:020000040000fa
:0402180030040000ae
:020000040000fa
:04021c0030040000aa
:020000040000fa
:0402200030040000a6
:020000040000fa
:0402240030040000a2
:020000040000fa
:04022800300400009e
:020000040000fa
:04022c00300400009a
:020000040000fa
:040230003004000096
:020000040000fa
:040234003004000092
:020000040000fa
:04023800300400008e
:020000040000fa
:04023c00300400008a
:020000040000fa
:040240003004000086
:020000040000fa
:040244003004000082
:020000040000fa
:04024800300400007e
:020000040000fa
:04024c00300400007a
:020000040000fa
:040250003004000076
:020000040000fa
:040254003004000072
:020000040000fa
:04025800300400006e
:020000040000fa
:04025c00300400006a
:020000040000fa
:040260003004000066
:020000040000fa
:040264003004000062
:020000040000fa
:04026800300400005e
:020000040000fa
:04026c00300400005a
:020000040000fa
:040270003004000056
:020000040000fa
:040274003004000052
:020000040000fa
:04027800300400004e
:020000040000fa
:04027c00300400004a
:020000040000fa
:040280003004000046
:020000040000fa
:040284003004000042
:020000040000fa
:04028800300400003e
:020000040000fa
:04028c00300400003a
:020000040000fa
:040290003004000036
:020000040000fa
:040294003004000032
:020000040000fa
:04029800300400002e
:020000040000fa
:04029c00300400002a
:020000040000fa
:0402a0003004000026
:020000040000fa
:0402a4003004000022
:020000040000fa
:0402a800300400001e
:020000040000fa
:0402ac00300400001a
:020000040000fa
:0402b0003004000016
:020000040000fa
:0402b4003004000012
:020000040000fa
:0402b800300400000e
:020000040000fa
:0402bc00300400000a
:020000040000fa
:0402c0003004000006
:020000040000fa
:0402c4003004000002
:020000040000fa
:0402c80030040000fe
:020000040000fa
:0402cc0030040000fa
:020000040000fa
:0402d00030040000f6
:020000040000fa
:0402d40030040000f2
:020000040000fa
:0402d80030040000ee
:020000040000fa
:0402dc0030040000ea
:020000040000fa
:0402e00030040000e6
:020000040000fa
:0402e40030040000e2
:020000040000fa
:0402e80030040000de
:020000040000fa
:0402ec0030040000da
:020000040000fa
:0402f00030040000d6
:020000040000fa
:0402f40030040000d2
:020000040000fa
:0402f80030040000ce
:020000040000fa
:0402fc0030040000ca
:020000040000fa
:0403000030040000c5
:020000040000fa
:0403040030040000c1
:020000040000fa
:0403080030040000bd
:020000040000fa
:04030c0030040000b9
:020000040000fa
:0403100030040000b5
:020000040000fa
:0403140030040000b1
:020000040000fa
:0403180030040000ad
:020000040000fa
:04031c0030040000a9
:020000040000fa
:0403200030040000a5
:020000040000fa
:0403240030040000a1
:020000040000fa
:10040000af0221000eff22000e0188000000000054
:10041000000020000000e000020032000001200087
:1004200020028800140007000f0107000000e00010
:1004300003003a0040712000010020000200370054
:100440000000200001002000810f70000100320038
:100450000f000700000020000000e0000200320052
:100460000000020000000000080702000000000079
:100470000040da000000fe00200020000000e00044
:1004800002003200100020009001880000000600e9
:10049000a1028800800478000000eb001f003700f4
:1004a000e284440054a0b4009905ba00e2844400f8
:1004b00054a0b4009906ba00e284440054a0b400e9
:1004c0000006eb00476fde00fd07b200ae018800ba
:1004d000636ce10003003a000ad801000000eb0061
:1004e0000e003700606ce10008003a00004deb00a0
:1004f0000a05e800020039003420ec000af0a000f0
:100500008b05e900f9ff3e00040037006168e10057
:10051000010032000086eb000b00070019c7ba008b
:100520001905ba000e04e00003003a000a00e000da
:10053000dbff3a0000000600fe07b200ae028800b2
:100540008a047800f5ff37000cd0a300e20f4d00bd
:100550001c003b0089027800354dba000a05e8000e
:10056000020039003420ec000af0a0008b05e900fd
:100570000f003200254dba000a05e80002003900dc
:100580003420ec000af0a0008b05e90008003200de
:100590000c00e0000600320015cdba000a05e800a4
:1005a000020039003420ec000af0a0008b05e900bd
:1005b0008984e80054a0b4000b00e000e2ff3a0098
:1005c000000006009902ba00055d78008b05e9007d
:1005d000f7ff3200c82ade00055d78008b05e900d0
:1005e000f3ff32000c00e000f1ff320019ddba0029
:1005f000eeff370000000000000000003600f800a9
:10060000809fbe00829fbe00849fbe00869fbe006a
:100610000000fa00c028a9000000eb001302070048
:10062000000000000080fa004f03be004f02be0031
:100630004f01be004f00be003600f900004006002a
:100640003600f800809fbe00829fbe00849fbe00df
:10065000869fbe000000fa000c020700c048a900f7
:100660001000200001020700000000000080fa00d6
:100670004f03be004f02be004f01be004f00be0040
:100680003600f900004006003600f800809fbe00ea
:10069000829fbe00849fbe00869fbe000000fa00bd
:1006a000c068a90020002000f00107000000000041
:1006b0000080fa004f03be004f02be004f01be0093
:1006c0004f00be003600f900004006003600f8007a
:1006d000809fbe00829fbe00849fbe00869fbe009a
:1006e0000000fa00c088a90030002000df010700e8
:1006f000000000000080fa004f03be004f02be0061
:100700004f01be004f00be003600f9000040060059
:100710003600f800809fbe00829fbe00849fbe000e
:10072000869fbe000000fa00c608a90070002000e5
:10073000ce010700000000000080fa004f03be0059
:100740004f02be004f01be004f00be003600f90050
:10075000004006003600f800809fbe00829fbe0069
:10076000849fbe00869fbe000000fa0020468000e5
:100770004800de00614060000004e0000300320039
:10078000c508a900c0002000b8010700204680006d
:100790004500de00614060000004e000030032001c
:1007a000c4a8a90090002000b001070020468000e6
:1007b0004400de00614060000004e00003003200fd
:1007c000c488a900a0002000a801070020468000de
:1007d00000407800614060000004e0000300320047
:1007e000c408a900b0002000a0010700ffff3700e7
:1007f0003600f800809fbe00829fbe00849fbe002e
:10080000869fbe000000fa00308080000000e000fb
:1008100002003200308080000000010080022100d0
:10082000104090008040e8008002210011409800b4
:100830008002210011c0b300014878000028a900ff
:10084000000000000080fa004f03be004f02be000f
:100850004f01be004f00be003600f9000040060008
:0c0860000040da000000fe00000005006f
:020000040000fa
:10086c000000fa00007c80000080fa000000060006
:10087c000200fa00faff0700000f78001e00780053
:10088c00250007000004e0000200320000002800f0
:10089c00720007001e0078002b0007000004e00027
:1008ac0002003200000024006c0007001e007800db
:1008bc00330007000004e00002003200002020009a
:1008cc00660007001e0078003b0007000004e000f3
:1008dc000200320000082000600007001e007800b3
:1008ec00430007000004e000020032000004200076
:1008fc005a0007001e0078004b0007000004e000bf
:10090c00020032000001200054000700000000002b
:10091c000080fa00000006000400fa00100798009e
:10092c000040eb00004f78001e0090000000e0003b
:10093c0002003d0010c0b300004f78001e4078004c
:10094c000080fa00000006000400fa00100798006e
:10095c000040eb00004f78009e0090000000240047
:10096c00008060000000e0000200320010c0b30004
:10097c00004f78001e4078000080fa00000006004e
:10098c000400fa00100798000040eb00004f7800bc
:10099c009e00900000202000008060000000e0001d
:1009ac000200320010c0b300004f78001e407800e7
:1009bc000080fa00000006000400fa0010079800fe
:1009cc000040eb00004f78009e00900000082000d3
:1009dc00008060000000e0000200320010c0b30094
:1009ec00004f78001e4078000080fa0000000600de
:1009fc000400fa00100798000040eb00004f78004c
:100a0c009e00900000042000008060000000e000c8
:100a1c000200320010c0b300004f78001e40780076
:100a2c000080fa00000006000400fa00100798008d
:100a3c000040eb00004f78001e009000700060003a
:100a4c000000e0000200320010c0b300004f78003c
:100a5c001e4078000080fa00000006000200fa0038
:100a6c00000f78001e0078008080ea00007c800077
:100a7c0000806000007c8800000000000080fa000c
:100a8c00000006000000fa00802fef0000000000bc
:100a9c000080fa00000006000000fa000421ef00bc
:100aac0010a1270040088800203328000008880087
:100abc00308080000000e00002003a00c06e200090
:100acc00280007000028a9002028a8008002210087
:100adc008040eb0001487800000000000080fa0024
:100aec00000006000200fa00000f78009e0078005b
:100afc0041088800800221008040eb00014878000a
:100b0c00000000000080fa00000006000000fa005f
:100b1c00400880000080fa00000006000200fa0085
:100b2c00000f78009e0078002108880080022100c8
:100b3c008040eb0001487800000000000080fa00c3
:100b4c00000006000000fa00200880000080fa0077
:100b5c00000006000000fa00000000000080fa000f
:100b6c00000006000200fa00000f78002028a900ff
:100b7c009e007800318088002028a800000000002a
:100b8c000080fa00000006000000fa00800221003c
:100b9c008040eb00014878002028a80001e1a80063
:100bac00000000000080fa00000006000000fa00bf
:100bbc0001e1a9002028a900000000000080fa0033
:100bcc00000006000200fa0080022100104f78009d
:100bdc001e4078000004e000030032008002210077
:100bec008040eb00014878001e4078000080fa003d
:100bfc00000006000000fa00800221001040900066
:100c0c000080fb000080fa00000006000000fa00e3
:100c1c00800221008040eb00114098000000000091
:100c2c000080fa00000006000000fa0010102300fb
:100c3c00307c880060092000407c88008c2fef00fd
:100c4c0010042000507c880010002800707c880064
:100c5c0060092000807c880010042000907c8800b3
:100c6c00b82fef00ba2fef00be2fef00002def00d2
:100c7c00a02fef00a42fef00a62fef00a82fef005e
:100c8c00aa2fef00ae2fef00b02fef00b22fef0026
:100c9c0072c0b30080c7b300a1c9b30053f82000e1
:100cac008049780081497800824978000041eb0046
:100cbc0060c4b30071c5b30043f8200080497800cc
:100ccc008149780082497800000000000080fa0019
:100cdc00000006000000fa00707c80004e00de0070
:100cec00614060000080fb0000f0a7000000ea00fb
:100cfc000000ea004f00de00004078000080fa009f
:100d0c00000006000200fa00000f780021028000ab
:100d1c00200f2000808060001e0078000100700011
:100d2c0020028800000000000080fa00000006008d
:100d3c000000fa00c3e8a80000000000000000005a
:100d4c00000000000080fa00000006000000fa001d
:100d5c0009000700b4ff0700510007004eff070011
:100d6c00f3ff070000022000e6ff07000000000070
:100d7c000080fa00000006000000fa00062eef00ca
:100d8c001020200010718800e001200010708800f5
:100d9c00d0ff2b00f07088000c2eef00282eef00f7
:100dac000a2eef00262eef00082eef00242eef0067
:100dbc00e001200000708800c0192000e07088005d
:100dcc00000000000080fa00000006000000fa009d
:100ddc003070800000407800614060006140680025
:100dec006140600061e02000914078000104a100a6
:100dfc0000c0700006eeb700000000000080fa0092
:100e0c00000006000000fa00d0ff0700c06e2000b2
:0c0e1c0054ff07005cff0700ffff3700d9
:020000040000fa
:100e2800001000000400000080000000081000000e
:100e380020000000800000000410000002000000f4
:100e480082000000ffff00002810000002000000e0
:100e58008000000006100000020000008000000072
:040e68000000000086
:020000040000fa
:100e6c000200fa00000f78009e00780021808800b4
:100e7c000000fe00000000000080fa0000000600e8
:100e8c000000fa0080002100800778000002210099
:100e9c0000018800000000000080fa00000006003d
:100eac000000fa000042800064400a0000010000cb
:100ebc0000428800000000000080fa0000000600dc
:100ecc00809fbe00ec8057003100780000808800c5
:100edc001100780002f0b7004f00be0000000600c1
:020000040000fa
:04be0000ffffff0041
:020000040000fa
:04be2000ffffff0021
:020000040000fa
:04be30007fffff0091
:020000040000fa
:04be3800bbffff004d
:020000040000fa
:04be40007f7fff0001
:020000040000fa
:04be4800ffffff00f9
:020000040000fa
:04be5000ddffff0013
:020000040000fa
:04be58000000ff00e7
:020000040000fa
:04be60000000ff00df
:020000040000fa
:04be68000000ff00d7
:020000040000fa
:04be70000000ff00cf
:020000040000fa
:04be7800ffffff00c9
:020000040000fa
:04be8000fffcff00c4
:020000040000fa
:04be8800ffffff00b9
:00000001FF
