:020000040000fa
:080000000002040000000000f2
:020000040000fa
:04000800fa020000f8
:020000040000fa
:04000c0040030000ad
:020000040000fa
:040010008403000065
:020000040000fa
:040014001c030000c9
:020000040000fa
:04001800620300007f
:020000040000fa
:04001c00f4030000e9
:020000040000fa
:04002000a603000033
:020000040000fa
:04002400f4030000e1
:020000040000fa
:04002800f4030000dd
:020000040000fa
:04002c00f4030000d9
:020000040000fa
:04003000f4030000d5
:020000040000fa
:04003400f4030000d1
:020000040000fa
:04003800f4030000cd
:020000040000fa
:04003c00f4030000c9
:020000040000fa
:04004000f4030000c5
:020000040000fa
:04004400f4030000c1
:020000040000fa
:04004800f4030000bd
:020000040000fa
:04004c00f4030000b9
:020000040000fa
:04005000f4030000b5
:020000040000fa
:04005400f4030000b1
:020000040000fa
:04005800f4030000ad
:020000040000fa
:04005c00f4030000a9
:020000040000fa
:04006000f4030000a5
:020000040000fa
:04006400f4030000a1
:020000040000fa
:04006800f40300009d
:020000040000fa
:04006c00f403000099
:020000040000fa
:04007000f403000095
:020000040000fa
:04007400f403000091
:020000040000fa
:04007800f40300008d
:020000040000fa
:04007c00f403000089
:020000040000fa
:04008000f403000085
:020000040000fa
:04008400f403000081
:020000040000fa
:04008800f40300007d
:020000040000fa
:04008c00f403000079
:020000040000fa
:04009000f403000075
:020000040000fa
:04009400f403000071
:020000040000fa
:04009800f40300006d
:020000040000fa
:04009c00f403000069
:020000040000fa
:0400a000f403000065
:020000040000fa
:0400a400f403000061
:020000040000fa
:0400a800f40300005d
:020000040000fa
:0400ac00f403000059
:020000040000fa
:0400b000f403000055
:020000040000fa
:0400b400f403000051
:020000040000fa
:0400b800f40300004d
:020000040000fa
:0400bc00f403000049
:020000040000fa
:0400c000f403000045
:020000040000fa
:0400c400f403000041
:020000040000fa
:0400c800f40300003d
:020000040000fa
:0400cc00f403000039
:020000040000fa
:0400d000f403000035
:020000040000fa
:0400d400f403000031
:020000040000fa
:0400d800f40300002d
:020000040000fa
:0400dc00f403000029
:020000040000fa
:0400e000f403000025
:020000040000fa
:0400e400f403000021
:020000040000fa
:0400e800f40300001d
:020000040000fa
:0400ec00f403000019
:020000040000fa
:0400f000f403000015
:020000040000fa
:0400f400f403000011
:020000040000fa
:0400f800f40300000d
:020000040000fa
:0400fc00f403000009
:020000040000fa
:04010000f403000004
:020000040000fa
:04010400f403000000
:020000040000fa
:04010800f4030000fc
:020000040000fa
:04010c00f4030000f8
:020000040000fa
:04011000f4030000f4
:020000040000fa
:04011400f4030000f0
:020000040000fa
:04011800f4030000ec
:020000040000fa
:04011c00f4030000e8
:020000040000fa
:04012000f4030000e4
:020000040000fa
:04012400f4030000e0
:020000040000fa
:04012800f4030000dc
:020000040000fa
:04012c00f4030000d8
:020000040000fa
:04013000f4030000d4
:020000040000fa
:04013400f4030000d0
:020000040000fa
:04013800f4030000cc
:020000040000fa
:04013c00f4030000c8
:020000040000fa
:04014000f4030000c4
:020000040000fa
:04014400f4030000c0
:020000040000fa
:04014800f4030000bc
:020000040000fa
:04014c00f4030000b8
:020000040000fa
:04015000f4030000b4
:020000040000fa
:04015400f4030000b0
:020000040000fa
:04015800f4030000ac
:020000040000fa
:04015c00f4030000a8
:020000040000fa
:04016000f4030000a4
:020000040000fa
:04016400f4030000a0
:020000040000fa
:04016800f40300009c
:020000040000fa
:04016c00f403000098
:020000040000fa
:04017000f403000094
:020000040000fa
:04017400f403000090
:020000040000fa
:04017800f40300008c
:020000040000fa
:04017c00f403000088
:020000040000fa
:04018000f403000084
:020000040000fa
:04018400f403000080
:020000040000fa
:04018800f40300007c
:020000040000fa
:04018c00f403000078
:020000040000fa
:04019000f403000074
:020000040000fa
:04019400f403000070
:020000040000fa
:04019800f40300006c
:020000040000fa
:04019c00f403000068
:020000040000fa
:0401a000f403000064
:020000040000fa
:0401a400f403000060
:020000040000fa
:0401a800f40300005c
:020000040000fa
:0401ac00f403000058
:020000040000fa
:0401b000f403000054
:020000040000fa
:0401b400f403000050
:020000040000fa
:0401b800f40300004c
:020000040000fa
:0401bc00f403000048
:020000040000fa
:0401c000f403000044
:020000040000fa
:0401c400f403000040
:020000040000fa
:0401c800f40300003c
:020000040000fa
:0401cc00f403000038
:020000040000fa
:0401d000f403000034
:020000040000fa
:0401d400f403000030
:020000040000fa
:0401d800f40300002c
:020000040000fa
:0401dc00f403000028
:020000040000fa
:0401e000f403000024
:020000040000fa
:0401e400f403000020
:020000040000fa
:0401e800f40300001c
:020000040000fa
:0401ec00f403000018
:020000040000fa
:0401f000f403000014
:020000040000fa
:0401f400f403000010
:020000040000fa
:0401f800f40300000c
:020000040000fa
:0401fc00f403000008
:020000040000fa
:04020000f403000003
:020000040000fa
:04020400f4030000ff
:020000040000fa
:04020800f4030000fb
:020000040000fa
:04020c00f4030000f7
:020000040000fa
:04021000f4030000f3
:020000040000fa
:04021400f4030000ef
:020000040000fa
:04021800f4030000eb
:020000040000fa
:04021c00f4030000e7
:020000040000fa
:04022000f4030000e3
:020000040000fa
:04022400f4030000df
:020000040000fa
:04022800f4030000db
:020000040000fa
:04022c00f4030000d7
:020000040000fa
:04023000f4030000d3
:020000040000fa
:04023400f4030000cf
:020000040000fa
:04023800f4030000cb
:020000040000fa
:04023c00f4030000c7
:020000040000fa
:04024000f4030000c3
:020000040000fa
:04024400f4030000bf
:020000040000fa
:04024800f4030000bb
:020000040000fa
:04024c00f4030000b7
:020000040000fa
:04025000f4030000b3
:020000040000fa
:04025400f4030000af
:020000040000fa
:04025800f4030000ab
:020000040000fa
:04025c00f4030000a7
:020000040000fa
:04026000f4030000a3
:020000040000fa
:04026400f40300009f
:020000040000fa
:04026800f40300009b
:020000040000fa
:04026c00f403000097
:020000040000fa
:04027000f403000093
:020000040000fa
:04027400f40300008f
:020000040000fa
:04027800f40300008b
:020000040000fa
:04027c00f403000087
:020000040000fa
:04028000f403000083
:020000040000fa
:04028400f40300007f
:020000040000fa
:04028800f40300007b
:020000040000fa
:04028c00f403000077
:020000040000fa
:04029000f403000073
:020000040000fa
:04029400f40300006f
:020000040000fa
:04029800f40300006b
:020000040000fa
:04029c00f403000067
:020000040000fa
:0402a000f403000063
:020000040000fa
:0402a400f40300005f
:020000040000fa
:0402a800f40300005b
:020000040000fa
:0402ac00f403000057
:020000040000fa
:0402b000f403000053
:020000040000fa
:0402b400f40300004f
:020000040000fa
:0402b800f40300004b
:020000040000fa
:0402bc00f403000047
:020000040000fa
:0402c000f403000043
:020000040000fa
:0402c400f40300003f
:020000040000fa
:0402c800f40300003b
:020000040000fa
:0402cc00f403000037
:020000040000fa
:0402d000f403000033
:020000040000fa
:0402d400f40300002f
:020000040000fa
:0402d800f40300002b
:020000040000fa
:0402dc00f403000027
:020000040000fa
:0402e000f403000023
:020000040000fa
:0402e400f40300001f
:020000040000fa
:0402e800f40300001b
:020000040000fa
:0402ec00f403000017
:020000040000fa
:0402f000f403000013
:020000040000fa
:0402f400f40300000f
:020000040000fa
:0402f800f40300000b
:020000040000fa
:0402fc00f403000007
:020000040000fa
:04030000f403000002
:020000040000fa
:04030400f4030000fe
:020000040000fa
:04030800f4030000fa
:020000040000fa
:04030c00f4030000f6
:020000040000fa
:04031000f4030000f2
:020000040000fa
:04031400f4030000ee
:020000040000fa
:04031800f4030000ea
:020000040000fa
:04031c00f4030000e6
:020000040000fa
:04032000f4030000e2
:020000040000fa
:04032400f4030000de
:020000040000fa
:100400006f0221000eff22000e0188000000000094
:10041000000020000000e000020032000001200087
:100420002002880014000700f10007000000e0002f
:1004300003003a00807c2000010020000200370009
:100440000000200001002000810f70000100320038
:100450000f000700000020000000e0000200320052
:100460000000020000000000f6070200000000008b
:100470000040da000000fe00200020000000e00044
:1004800002003200100020009001880000000600e9
:10049000a1028800800478000000eb001f003700f4
:1004a000e284440054a0b4009905ba00e2844400f8
:1004b00054a0b4009906ba00e284440054a0b400e9
:1004c0000006eb00476fde00fd07b200ae018800ba
:1004d000636ce10003003a000ad801000000eb0061
:1004e0000e003700606ce10008003a00004deb00a0
:1004f0000a05e800020039003420ec000af0a000f0
:100500008b05e900f9ff3e00040037006168e10057
:10051000010032000086eb000b00070019c7ba008b
:100520001905ba000e04e00003003a000a00e000da
:10053000dbff3a0000000600fe07b200ae028800b2
:100540008a047800f5ff37000cd0a300e20f4d00bd
:100550001c003b0089027800354dba000a05e8000e
:10056000020039003420ec000af0a0008b05e900fd
:100570000f003200254dba000a05e80002003900dc
:100580003420ec000af0a0008b05e90008003200de
:100590000c00e0000600320015cdba000a05e800a4
:1005a000020039003420ec000af0a0008b05e900bd
:1005b0008984e80054a0b4000b00e000e2ff3a0098
:1005c000000006009902ba00055d78008b05e9007d
:1005d000f7ff3200c82ade00055d78008b05e900d0
:1005e000f3ff32000c00e000f1ff320019ddba0029
:1005f000eeff37003600f800809fbe00829fbe00ed
:10060000849fbe00869fbe000000fa00c028a9009b
:100610000000eb004e020700000000000080fa001e
:100620004f03be004f02be004f01be004f00be0090
:100630003600f900004006003600f800809fbe003a
:10064000829fbe00849fbe00869fbe000000fa000d
:1006500047020700c048a900100020003c02070024
:10066000000000000080fa004f03be004f02be00f1
:100670004f01be004f00be003600f90000400600ea
:100680003600f800809fbe00829fbe00849fbe009f
:10069000869fbe000000fa00c068a900200020006c
:1006a0002b020700000000000080fa004f03be008c
:1006b0004f02be004f01be004f00be003600f900e1
:1006c000004006003600f800809fbe00829fbe00fa
:1006d000849fbe00869fbe000000fa00c088a9006b
:1006e000300020001a020700000000000080fa001d
:1006f0004f03be004f02be004f01be004f00be00c0
:100700003600f900004006003600f800809fbe0069
:10071000829fbe00849fbe00869fbe000000fa003c
:10072000c608a900700020000902070000000000b0
:100730000080fa004f03be004f02be004f01be0012
:100740004f00be003600f900004006003600f800f9
:10075000809fbe00829fbe00849fbe00869fbe0019
:100760000000fa00204680004800de006140600082
:100770000004e00003003200c508a900c00020000a
:10078000f3010700204680004500de006140600064
:100790000004e00003003200c4a8a900900020007b
:1007a000eb010700204680004400de00614060004d
:1007b0000004e00003003200c488a900a00020006b
:1007c000e30107002046800000407800614060009f
:1007d0000004e00003003200c408a900b0002000bb
:1007e000db010700ffff37000040da000000fe00d9
:0407f0000000050000
:020000040000fa
:1007f4000000fa008008200050198800c00820007a
:10080400001b880010002000001888000223ef005d
:100814000423ef000623ef000823ef00000120006b
:10082400501888000c23ef000e23ef001023ef0074
:100834001223ef001423ef001623ef001823ef0018
:100844001a23ef001c23ef001e23ef002023ef00e8
:100854002223ef002423ef002623ef002823ef00b8
:100864002c23ef006223ef002e23ef006423ef001c
:100874003023ef006623ef00400120009019880028
:1008840040012000401b88003423ef006a23ef005e
:100894003623ef006c23ef003823ef006e23ef00c4
:1008a4003a23ef007023ef003c23ef007223ef00a4
:1008b4003e23ef007423ef004023ef007623ef0084
:1008c4004223ef007823ef004423ef007a23ef0064
:1008d4004623ef007c23ef004823ef007e23ef0044
:1008e4004a23ef008023ef004c23ef004001200057
:1008f400101c880000e22400701a88000071220095
:10090400201c88005023ef008623ef0080c32900b9
:10091400901a880080e12400401c88005423ef00d2
:100924008a23ef005623ef008c23ef005823ef00b7
:100934008e23ef005a23ef0040002000801c880023
:100944005c23ef0040002000901c88002be3a800eb
:1009540061e3a800000000000080fa000000060027
:100964000000fa00000000000080fa000000060009
:100974000000fa00404080004300de006140600057
:100984000004e00002003200f5ff07000868a90037
:10099400000000000080fa00000006000000fa00d9
:1009a400000000000080fa00000006000000fa00c9
:1009b400404080004400de00614060000004e0002c
:1009c40002003200f5ff07000888a90000000000bb
:1009d4000080fa00000006000000fa000000000099
:1009e4000080fa00000006000000fa00a040800029
:1009f4004900de00614060000004e00002003200b3
:100a0400f5ff07001528a900000000000080fa0087
:100a1400000006000000fa00000000000080fa0058
:100a2400000006000000fa00a04080004a00de003a
:100a3400614060000004e00002003200f5ff07009e
:100a44001548a900000000000080fa00000006001c
:100a54000000fa00000000000080fa000000060018
:100a64000000fa00a04080004b00de0061406000fe
:100a74000004e00002003200f5ff07001568a90039
:100a8400000000000080fa00000006000000fa00e8
:100a9400000000000080fa00000006000000fa00d8
:100aa400a04080004c00de00614060000004e000d3
:100ab40002003200f5ff07001588a90000000000bd
:100ac4000080fa00000006000000fa0000000000a8
:100ad4000080fa00000006000000fa00a040800038
:100ae4004d00de00614060000004e00002003200be
:100af400f5ff070015a8a900000000000080fa0017
:100b0400000006000000fa00000000000080fa0067
:100b1400000006000000fa00a04080004e00de0045
:100b2400614060000004e00002003200f5ff0700ad
:100b340015c8a900000000000080fa0000000600ab
:100b44000000fa00007c80000080fa00000006002b
:100b54000200fa00faff0700000f78001e00780078
:100b6400250007000004e000020032000000280015
:100b7400720007001e0078002b0007000004e0004c
:100b840002003200000024006c0007001e00780000
:100b9400330007000004e0000200320000202000bf
:100ba400660007001e0078003b0007000004e00018
:100bb4000200320000082000600007001e007800d8
:100bc400430007000004e00002003200000420009b
:100bd4005a0007001e0078004b0007000004e000e4
:100be4000200320000012000540007000000000051
:100bf4000080fa00000006000400fa0010079800c4
:100c04000040eb00004f78001e0090000000e00060
:100c140002003d0010c0b300004f78001e40780071
:100c24000080fa00000006000400fa001007980093
:100c34000040eb00004f78009e009000000024006c
:100c4400008060000000e0000200320010c0b30029
:100c5400004f78001e4078000080fa000000060073
:100c64000400fa00100798000040eb00004f7800e1
:100c74009e00900000202000008060000000e00042
:100c84000200320010c0b300004f78001e4078000c
:100c94000080fa00000006000400fa001007980023
:100ca4000040eb00004f78009e00900000082000f8
:100cb400008060000000e0000200320010c0b300b9
:100cc400004f78001e4078000080fa000000060003
:100cd4000400fa00100798000040eb00004f780071
:100ce4009e00900000042000008060000000e000ee
:100cf4000200320010c0b300004f78001e4078009c
:100d04000080fa00000006000400fa0010079800b2
:100d14000040eb00004f78001e009000700060005f
:100d24000000e0000200320010c0b300004f780061
:100d34001e4078000080fa00000006000200fa005d
:100d4400000f78001e0078008080ea00007c80009c
:100d540000806000007c8800000000000080fa0031
:100d6400000006000000fa00802fef0000000000e1
:100d74000080fa00000006000000fa0010002300c2
:100d8400307c880060092000407c88008c2fef00b4
:100d940020222000507c880010102000707c8800e5
:100da400d0072000807c880010242000907c8800dc
:100db400b82fef00ba2fef00be2fef00002def0089
:100dc400a02fef00a42fef00a62fef00a82fef0015
:100dd400aa2fef00ae2fef00b02fef00b22fef00dd
:100de40012c0b30080c7b300a1c9b30053f82000f8
:100df40080497800814978008249780012c0b300a4
:100e040060c4b30071c5b30043f820008049780082
:100e1400814978008249780000000000207c80002d
:100e240000407800614060000004e000fbff3a00ed
:100e340000000000207c80004500de00614060006e
:100e4400e14f5000fbff3a00000000000080fa0070
:100e5400000006000000fa00707c80004e00de00f6
:100e6400614060000080fb0000f0a7000000ea0081
:100e74000000ea004f00de00004078000080fa0025
:100e8400000006000200fa00000f78002102800032
:100e9400200f2000808060001e0078000100700098
:100ea40020028800000000000080fa000000060014
:100eb4000000fa00c3e8a8000000000000000000e1
:100ec400000000000080fa00000006000000fa00a4
:100ed4000900070040000700a7ff070044fe0700c1
:100ee400f3ff070000022000e6ff070000000000f7
:100ef4000080fa00000006000000fa00062eef0051
:100f04001060200010718800e0012000107088003b
:100f1400d0ff2500f07088000c2eef00282eef0083
:100f24000a2eef00262eef00082eef00242eef00ed
:100f3400e001200000708800f0192000e0708800b3
:100f4400000000000080fa00000006000200fa0021
:100f5400000f78009e007800218088000000fe00c9
:100f6400000000000080fa00000006000000fa0003
:100f74006000210080077800e00121000001880062
:0c0f8400000000000080fa0000000600e1
:020000040000fa
:100f900000100000040000008000000006100000a7
:100fa000200000008000000004100000020000008b
:0c0fb00082000000ffff000000000000b5
:020000040000fa
:100fbc00809fbe00ec8057003100780000808800d4
:100fcc001100780002f0b7004f00be0000000600d0
:100fdc000000fa00000000000080fa00000006008b
:0c0fec000000fa00b7ff0700ffff37000d
:020000040000fa
:04be0000ffffff0041
:020000040000fa
:04be2000ffffff0021
:020000040000fa
:04be300078ffff0098
:020000040000fa
:04be38007bffff008d
:020000040000fa
:04be40007f7fff0001
:020000040000fa
:04be4800ffffff00f9
:020000040000fa
:04be5000ddffff0013
:020000040000fa
:04be58000000ff00e7
:020000040000fa
:04be60000000ff00df
:020000040000fa
:04be68000000ff00d7
:020000040000fa
:04be70000000ff00cf
:020000040000fa
:04be7800ffffff00c9
:020000040000fa
:04be8000fffcff00c4
:020000040000fa
:04be8800ffffff00b9
:00000001FF
